{
	"data": {
		"bytecode": {
			"linkReferences": {},
			"object": "608060405260008060016101000a81548160ff0219169083600381111561002257fe5b021790555034801561003357600080fd5b506102fd806100436000396000f3fe608060405234801561001057600080fd5b50600436106100935760003560e01c8063b46e8d1a11610066578063b46e8d1a14610106578063daf4343f14610132578063e0be4a2e1461013c578063e7260f9a1461016a578063e9073c331461017457610093565b806339feafa3146100985780638a60839f146100c4578063943fad7f146100ce578063b1e92247146100d8575b600080fd5b6100a061017e565b604051808260038111156100b057fe5b60ff16815260200191505060405180910390f35b6100cc610194565b005b6100d66101ba565b005b610104600480360360208110156100ee57600080fd5b81019080803590602001909291905050506101e0565b005b61010e610211565b6040518082600181111561011e57fe5b60ff16815260200191505060405180910390f35b61013a610227565b005b6101686004803603602081101561015257600080fd5b810190808035906020019092919050505061024d565b005b61017261027d565b005b61017c6102a2565b005b60008060019054906101000a900460ff16905090565b6002600060016101000a81548160ff021916908360038111156101b357fe5b0217905550565b6003600060016101000a81548160ff021916908360038111156101d957fe5b0217905550565b8060038111156101ec57fe5b600060016101000a81548160ff0219169083600381111561020957fe5b021790555050565b60008060009054906101000a900460ff16905090565b6001600060016101000a81548160ff0219169083600381111561024657fe5b0217905550565b80600181111561025957fe5b6000806101000a81548160ff0219169083600181111561027557fe5b021790555050565b60008060016101000a81548160ff0219169083600381111561029b57fe5b0217905550565b60008060006101000a81548160ff021916908360018111156102c057fe5b021790555056fea26469706673582212201d661fe6e0de1ef53943ed351a1235ec269b8157b3e33b4cb04a21751f6d8aa464736f6c63430006000033",
			"opcodes": "PUSH1 0x80 PUSH1 0x40 MSTORE PUSH1 0x0 DUP1 PUSH1 0x1 PUSH2 0x100 EXP DUP2 SLOAD DUP2 PUSH1 0xFF MUL NOT AND SWAP1 DUP4 PUSH1 0x3 DUP2 GT ISZERO PUSH2 0x22 JUMPI INVALID JUMPDEST MUL OR SWAP1 SSTORE POP CALLVALUE DUP1 ISZERO PUSH2 0x33 JUMPI PUSH1 0x0 DUP1 REVERT JUMPDEST POP PUSH2 0x2FD DUP1 PUSH2 0x43 PUSH1 0x0 CODECOPY PUSH1 0x0 RETURN INVALID PUSH1 0x80 PUSH1 0x40 MSTORE CALLVALUE DUP1 ISZERO PUSH2 0x10 JUMPI PUSH1 0x0 DUP1 REVERT JUMPDEST POP PUSH1 0x4 CALLDATASIZE LT PUSH2 0x93 JUMPI PUSH1 0x0 CALLDATALOAD PUSH1 0xE0 SHR DUP1 PUSH4 0xB46E8D1A GT PUSH2 0x66 JUMPI DUP1 PUSH4 0xB46E8D1A EQ PUSH2 0x106 JUMPI DUP1 PUSH4 0xDAF4343F EQ PUSH2 0x132 JUMPI DUP1 PUSH4 0xE0BE4A2E EQ PUSH2 0x13C JUMPI DUP1 PUSH4 0xE7260F9A EQ PUSH2 0x16A JUMPI DUP1 PUSH4 0xE9073C33 EQ PUSH2 0x174 JUMPI PUSH2 0x93 JUMP JUMPDEST DUP1 PUSH4 0x39FEAFA3 EQ PUSH2 0x98 JUMPI DUP1 PUSH4 0x8A60839F EQ PUSH2 0xC4 JUMPI DUP1 PUSH4 0x943FAD7F EQ PUSH2 0xCE JUMPI DUP1 PUSH4 0xB1E92247 EQ PUSH2 0xD8 JUMPI JUMPDEST PUSH1 0x0 DUP1 REVERT JUMPDEST PUSH2 0xA0 PUSH2 0x17E JUMP JUMPDEST PUSH1 0x40 MLOAD DUP1 DUP3 PUSH1 0x3 DUP2 GT ISZERO PUSH2 0xB0 JUMPI INVALID JUMPDEST PUSH1 0xFF AND DUP2 MSTORE PUSH1 0x20 ADD SWAP2 POP POP PUSH1 0x40 MLOAD DUP1 SWAP2 SUB SWAP1 RETURN JUMPDEST PUSH2 0xCC PUSH2 0x194 JUMP JUMPDEST STOP JUMPDEST PUSH2 0xD6 PUSH2 0x1BA JUMP JUMPDEST STOP JUMPDEST PUSH2 0x104 PUSH1 0x4 DUP1 CALLDATASIZE SUB PUSH1 0x20 DUP2 LT ISZERO PUSH2 0xEE JUMPI PUSH1 0x0 DUP1 REVERT JUMPDEST DUP2 ADD SWAP1 DUP1 DUP1 CALLDATALOAD SWAP1 PUSH1 0x20 ADD SWAP1 SWAP3 SWAP2 SWAP1 POP POP POP PUSH2 0x1E0 JUMP JUMPDEST STOP JUMPDEST PUSH2 0x10E PUSH2 0x211 JUMP JUMPDEST PUSH1 0x40 MLOAD DUP1 DUP3 PUSH1 0x1 DUP2 GT ISZERO PUSH2 0x11E JUMPI INVALID JUMPDEST PUSH1 0xFF AND DUP2 MSTORE PUSH1 0x20 ADD SWAP2 POP POP PUSH1 0x40 MLOAD DUP1 SWAP2 SUB SWAP1 RETURN JUMPDEST PUSH2 0x13A PUSH2 0x227 JUMP JUMPDEST STOP JUMPDEST PUSH2 0x168 PUSH1 0x4 DUP1 CALLDATASIZE SUB PUSH1 0x20 DUP2 LT ISZERO PUSH2 0x152 JUMPI PUSH1 0x0 DUP1 REVERT JUMPDEST DUP2 ADD SWAP1 DUP1 DUP1 CALLDATALOAD SWAP1 PUSH1 0x20 ADD SWAP1 SWAP3 SWAP2 SWAP1 POP POP POP PUSH2 0x24D JUMP JUMPDEST STOP JUMPDEST PUSH2 0x172 PUSH2 0x27D JUMP JUMPDEST STOP JUMPDEST PUSH2 0x17C PUSH2 0x2A2 JUMP JUMPDEST STOP JUMPDEST PUSH1 0x0 DUP1 PUSH1 0x1 SWAP1 SLOAD SWAP1 PUSH2 0x100 EXP SWAP1 DIV PUSH1 0xFF AND SWAP1 POP SWAP1 JUMP JUMPDEST PUSH1 0x2 PUSH1 0x0 PUSH1 0x1 PUSH2 0x100 EXP DUP2 SLOAD DUP2 PUSH1 0xFF MUL NOT AND SWAP1 DUP4 PUSH1 0x3 DUP2 GT ISZERO PUSH2 0x1B3 JUMPI INVALID JUMPDEST MUL OR SWAP1 SSTORE POP JUMP JUMPDEST PUSH1 0x3 PUSH1 0x0 PUSH1 0x1 PUSH2 0x100 EXP DUP2 SLOAD DUP2 PUSH1 0xFF MUL NOT AND SWAP1 DUP4 PUSH1 0x3 DUP2 GT ISZERO PUSH2 0x1D9 JUMPI INVALID JUMPDEST MUL OR SWAP1 SSTORE POP JUMP JUMPDEST DUP1 PUSH1 0x3 DUP2 GT ISZERO PUSH2 0x1EC JUMPI INVALID JUMPDEST PUSH1 0x0 PUSH1 0x1 PUSH2 0x100 EXP DUP2 SLOAD DUP2 PUSH1 0xFF MUL NOT AND SWAP1 DUP4 PUSH1 0x3 DUP2 GT ISZERO PUSH2 0x209 JUMPI INVALID JUMPDEST MUL OR SWAP1 SSTORE POP POP JUMP JUMPDEST PUSH1 0x0 DUP1 PUSH1 0x0 SWAP1 SLOAD SWAP1 PUSH2 0x100 EXP SWAP1 DIV PUSH1 0xFF AND SWAP1 POP SWAP1 JUMP JUMPDEST PUSH1 0x1 PUSH1 0x0 PUSH1 0x1 PUSH2 0x100 EXP DUP2 SLOAD DUP2 PUSH1 0xFF MUL NOT AND SWAP1 DUP4 PUSH1 0x3 DUP2 GT ISZERO PUSH2 0x246 JUMPI INVALID JUMPDEST MUL OR SWAP1 SSTORE POP JUMP JUMPDEST DUP1 PUSH1 0x1 DUP2 GT ISZERO PUSH2 0x259 JUMPI INVALID JUMPDEST PUSH1 0x0 DUP1 PUSH2 0x100 EXP DUP2 SLOAD DUP2 PUSH1 0xFF MUL NOT AND SWAP1 DUP4 PUSH1 0x1 DUP2 GT ISZERO PUSH2 0x275 JUMPI INVALID JUMPDEST MUL OR SWAP1 SSTORE POP POP JUMP JUMPDEST PUSH1 0x0 DUP1 PUSH1 0x1 PUSH2 0x100 EXP DUP2 SLOAD DUP2 PUSH1 0xFF MUL NOT AND SWAP1 DUP4 PUSH1 0x3 DUP2 GT ISZERO PUSH2 0x29B JUMPI INVALID JUMPDEST MUL OR SWAP1 SSTORE POP JUMP JUMPDEST PUSH1 0x0 DUP1 PUSH1 0x0 PUSH2 0x100 EXP DUP2 SLOAD DUP2 PUSH1 0xFF MUL NOT AND SWAP1 DUP4 PUSH1 0x1 DUP2 GT ISZERO PUSH2 0x2C0 JUMPI INVALID JUMPDEST MUL OR SWAP1 SSTORE POP JUMP INVALID LOG2 PUSH5 0x6970667358 0x22 SLT KECCAK256 SAR PUSH7 0x1FE6E0DE1EF539 NUMBER 0xED CALLDATALOAD BYTE SLT CALLDATALOAD 0xEC 0x26 SWAP12 DUP2 JUMPI 0xB3 0xE3 EXTCODESIZE 0x4C 0xB0 0x4A 0x21 PUSH22 0x1F6D8AA464736F6C6343000600003300000000000000 "
		},
		"gasEstimates": {
			"creation": {
				"codeDepositCost": "153000",
				"executionCost": "21133",
				"totalCost": "174133"
			},
			"external": {
				"Direcciones()": "1132",
				"Estado()": "1081",
				"abajo()": "21103",
				"arriba()": "21147",
				"derecha()": "21104",
				"encender()": "21119",
				"fijarDirecciones(uint256)": "21258",
				"fijarEstado(uint256)": "21185",
				"izquierda()": "21126"
			}
		},
		"methodIdentifiers": {
			"Direcciones()": "39feafa3",
			"Estado()": "b46e8d1a",
			"abajo()": "daf4343f",
			"arriba()": "e7260f9a",
			"derecha()": "8a60839f",
			"encender()": "e9073c33",
			"fijarDirecciones(uint256)": "b1e92247",
			"fijarEstado(uint256)": "e0be4a2e",
			"izquierda()": "943fad7f"
		}
	},
	"abi": [
		{
			"inputs": [],
			"name": "Direcciones",
			"outputs": [
				{
					"internalType": "enum ejemplo_enumeraciones.direcciones",
					"name": "",
					"type": "uint8"
				}
			],
			"stateMutability": "view",
			"type": "function"
		},
		{
			"inputs": [],
			"name": "Estado",
			"outputs": [
				{
					"internalType": "enum ejemplo_enumeraciones.estado",
					"name": "",
					"type": "uint8"
				}
			],
			"stateMutability": "view",
			"type": "function"
		},
		{
			"inputs": [],
			"name": "abajo",
			"outputs": [],
			"stateMutability": "nonpayable",
			"type": "function"
		},
		{
			"inputs": [],
			"name": "arriba",
			"outputs": [],
			"stateMutability": "nonpayable",
			"type": "function"
		},
		{
			"inputs": [],
			"name": "derecha",
			"outputs": [],
			"stateMutability": "nonpayable",
			"type": "function"
		},
		{
			"inputs": [],
			"name": "encender",
			"outputs": [],
			"stateMutability": "nonpayable",
			"type": "function"
		},
		{
			"inputs": [
				{
					"internalType": "uint256",
					"name": "_k",
					"type": "uint256"
				}
			],
			"name": "fijarDirecciones",
			"outputs": [],
			"stateMutability": "nonpayable",
			"type": "function"
		},
		{
			"inputs": [
				{
					"internalType": "uint256",
					"name": "_k",
					"type": "uint256"
				}
			],
			"name": "fijarEstado",
			"outputs": [],
			"stateMutability": "nonpayable",
			"type": "function"
		},
		{
			"inputs": [],
			"name": "izquierda",
			"outputs": [],
			"stateMutability": "nonpayable",
			"type": "function"
		}
	]
}