{
	"data": {
		"bytecode": {
			"linkReferences": {},
			"object": "6080604052602060005560046001556001546000546200002091906200016c565b600255600154600054620000359190620003fa565b6003556001546000546200004a9190620001c9565b6004556001546000546200005f919062000399565b6005556001546000546200007491906200043f565b6006556001546000546200008991906200025c565b6007556003600855600360095560015460005411600a60006101000a81548160ff02191690831515021790555060015460005410600a60016101000a81548160ff02191690831515021790555060095460085414600a60026101000a81548160ff02191690831515021790555060095460005414600a60036101000a81548160ff0219169083151502179055506001546000541415600a60046101000a81548160ff0219169083151502179055506001546000541015600a60056101000a81548160ff0219169083151502179055503480156200016557600080fd5b50620004e2565b6000620001798262000435565b9150620001868362000435565b9250827fffffffffffffffffffffffffffffffffffffffffffffffffffffffffffffffff03821115620001be57620001bd62000477565b5b828201905092915050565b6000620001d68262000435565b9150620001e38362000435565b925082620001f657620001f5620004a6565b5b828204905092915050565b6000808291508390505b600185111562000253578086048111156200022b576200022a62000477565b5b60018516156200023b5780820291505b80810290506200024b85620004d5565b94506200020b565b94509492505050565b6000620002698262000435565b9150620002768362000435565b9250620002a57fffffffffffffffffffffffffffffffffffffffffffffffffffffffffffffffff8484620002ad565b905092915050565b600082620002bf576001905062000392565b81620002cf576000905062000392565b8160018114620002e85760028114620002f35762000329565b600191505062000392565b60ff84111562000308576200030762000477565b5b8360020a91508482111562000322576200032162000477565b5b5062000392565b5060208310610133831016604e8410600b8410161715620003635782820a9050838111156200035d576200035c62000477565b5b62000392565b62000372848484600162000201565b925090508184048111156200038c576200038b62000477565b5b81810290505b9392505050565b6000620003a68262000435565b9150620003b38362000435565b9250817fffffffffffffffffffffffffffffffffffffffffffffffffffffffffffffffff0483118215151615620003ef57620003ee62000477565b5b828202905092915050565b6000620004078262000435565b9150620004148362000435565b9250828210156200042a576200042962000477565b5b828203905092915050565b6000819050919050565b60006200044c8262000435565b9150620004598362000435565b9250826200046c576200046b620004a6565b5b828206905092915050565b7f4e487b7100000000000000000000000000000000000000000000000000000000600052601160045260246000fd5b7f4e487b7100000000000000000000000000000000000000000000000000000000600052601260045260246000fd5b60008160011c9050919050565b61051b80620004f26000396000f3fe608060405234801561001057600080fd5b50600436106100ea5760003560e01c80636c3a28e11161008c578063b9e2fa3511610066578063b9e2fa351461022d578063c76218e61461024b578063e5935e3a14610269578063fa75054e14610287576100ea565b80636c3a28e1146101d35780637e7d8ec6146101f1578063899eb49c1461020f576100ea565b806340ba942c116100c857806340ba942c146101495780634417e597146101675780635507960114610185578063663bc990146101b5576100ea565b80633205f5fc146100ef5780633475a3ed1461010d578063357d49741461012b575b600080fd5b6100f76102b7565b604051610104919061043d565b60405180910390f35b6101156102bd565b604051610122919061043d565b60405180910390f35b6101336102c3565b6040516101409190610422565b60405180910390f35b6101516102d6565b60405161015e919061043d565b60405180910390f35b61016f6102dc565b60405161017c9190610422565b60405180910390f35b61019f600480360381019061019a91906103db565b6102ef565b6040516101ac9190610422565b60405180910390f35b6101bd61032a565b6040516101ca9190610422565b60405180910390f35b6101db61033d565b6040516101e8919061043d565b60405180910390f35b6101f9610343565b604051610206919061043d565b60405180910390f35b610217610349565b6040516102249190610422565b60405180910390f35b61023561035c565b6040516102429190610422565b60405180910390f35b61025361036f565b604051610260919061043d565b60405180910390f35b610271610375565b60405161027e9190610422565b60405180910390f35b6102a1600480360381019061029c91906103db565b610388565b6040516102ae9190610422565b60405180910390f35b60045481565b60035481565b600a60059054906101000a900460ff1681565b60075481565b600a60049054906101000a900460ff1681565b600080600a836102ff919061046e565b905060008114806103105750600581145b1561031f576001915050610325565b60009150505b919050565b600a60009054906101000a900460ff1681565b60065481565b60025481565b600a60019054906101000a900460ff1681565b600a60029054906101000a900460ff1681565b60055481565b600a60039054906101000a900460ff1681565b600080600a83610398919061046e565b9050600081141580156103ac575060058114155b156103bb5760009150506103c1565b60019150505b919050565b6000813590506103d5816104ce565b92915050565b6000602082840312156103ed57600080fd5b60006103fb848285016103c6565b91505092915050565b61040d81610458565b82525050565b61041c81610464565b82525050565b60006020820190506104376000830184610404565b92915050565b60006020820190506104526000830184610413565b92915050565b60008115159050919050565b6000819050919050565b600061047982610464565b915061048483610464565b9250826104945761049361049f565b5b828206905092915050565b7f4e487b7100000000000000000000000000000000000000000000000000000000600052601260045260246000fd5b6104d781610464565b81146104e257600080fd5b5056fea264697066735822122005185e96d4077c4a9399743212a4794b5b3fb5f5a5b1247f58790285857f20bb64736f6c63430008000033",
			"opcodes": "PUSH1 0x80 PUSH1 0x40 MSTORE PUSH1 0x20 PUSH1 0x0 SSTORE PUSH1 0x4 PUSH1 0x1 SSTORE PUSH1 0x1 SLOAD PUSH1 0x0 SLOAD PUSH3 0x20 SWAP2 SWAP1 PUSH3 0x16C JUMP JUMPDEST PUSH1 0x2 SSTORE PUSH1 0x1 SLOAD PUSH1 0x0 SLOAD PUSH3 0x35 SWAP2 SWAP1 PUSH3 0x3FA JUMP JUMPDEST PUSH1 0x3 SSTORE PUSH1 0x1 SLOAD PUSH1 0x0 SLOAD PUSH3 0x4A SWAP2 SWAP1 PUSH3 0x1C9 JUMP JUMPDEST PUSH1 0x4 SSTORE PUSH1 0x1 SLOAD PUSH1 0x0 SLOAD PUSH3 0x5F SWAP2 SWAP1 PUSH3 0x399 JUMP JUMPDEST PUSH1 0x5 SSTORE PUSH1 0x1 SLOAD PUSH1 0x0 SLOAD PUSH3 0x74 SWAP2 SWAP1 PUSH3 0x43F JUMP JUMPDEST PUSH1 0x6 SSTORE PUSH1 0x1 SLOAD PUSH1 0x0 SLOAD PUSH3 0x89 SWAP2 SWAP1 PUSH3 0x25C JUMP JUMPDEST PUSH1 0x7 SSTORE PUSH1 0x3 PUSH1 0x8 SSTORE PUSH1 0x3 PUSH1 0x9 SSTORE PUSH1 0x1 SLOAD PUSH1 0x0 SLOAD GT PUSH1 0xA PUSH1 0x0 PUSH2 0x100 EXP DUP2 SLOAD DUP2 PUSH1 0xFF MUL NOT AND SWAP1 DUP4 ISZERO ISZERO MUL OR SWAP1 SSTORE POP PUSH1 0x1 SLOAD PUSH1 0x0 SLOAD LT PUSH1 0xA PUSH1 0x1 PUSH2 0x100 EXP DUP2 SLOAD DUP2 PUSH1 0xFF MUL NOT AND SWAP1 DUP4 ISZERO ISZERO MUL OR SWAP1 SSTORE POP PUSH1 0x9 SLOAD PUSH1 0x8 SLOAD EQ PUSH1 0xA PUSH1 0x2 PUSH2 0x100 EXP DUP2 SLOAD DUP2 PUSH1 0xFF MUL NOT AND SWAP1 DUP4 ISZERO ISZERO MUL OR SWAP1 SSTORE POP PUSH1 0x9 SLOAD PUSH1 0x0 SLOAD EQ PUSH1 0xA PUSH1 0x3 PUSH2 0x100 EXP DUP2 SLOAD DUP2 PUSH1 0xFF MUL NOT AND SWAP1 DUP4 ISZERO ISZERO MUL OR SWAP1 SSTORE POP PUSH1 0x1 SLOAD PUSH1 0x0 SLOAD EQ ISZERO PUSH1 0xA PUSH1 0x4 PUSH2 0x100 EXP DUP2 SLOAD DUP2 PUSH1 0xFF MUL NOT AND SWAP1 DUP4 ISZERO ISZERO MUL OR SWAP1 SSTORE POP PUSH1 0x1 SLOAD PUSH1 0x0 SLOAD LT ISZERO PUSH1 0xA PUSH1 0x5 PUSH2 0x100 EXP DUP2 SLOAD DUP2 PUSH1 0xFF MUL NOT AND SWAP1 DUP4 ISZERO ISZERO MUL OR SWAP1 SSTORE POP CALLVALUE DUP1 ISZERO PUSH3 0x165 JUMPI PUSH1 0x0 DUP1 REVERT JUMPDEST POP PUSH3 0x4E2 JUMP JUMPDEST PUSH1 0x0 PUSH3 0x179 DUP3 PUSH3 0x435 JUMP JUMPDEST SWAP2 POP PUSH3 0x186 DUP4 PUSH3 0x435 JUMP JUMPDEST SWAP3 POP DUP3 PUSH32 0xFFFFFFFFFFFFFFFFFFFFFFFFFFFFFFFFFFFFFFFFFFFFFFFFFFFFFFFFFFFFFFFF SUB DUP3 GT ISZERO PUSH3 0x1BE JUMPI PUSH3 0x1BD PUSH3 0x477 JUMP JUMPDEST JUMPDEST DUP3 DUP3 ADD SWAP1 POP SWAP3 SWAP2 POP POP JUMP JUMPDEST PUSH1 0x0 PUSH3 0x1D6 DUP3 PUSH3 0x435 JUMP JUMPDEST SWAP2 POP PUSH3 0x1E3 DUP4 PUSH3 0x435 JUMP JUMPDEST SWAP3 POP DUP3 PUSH3 0x1F6 JUMPI PUSH3 0x1F5 PUSH3 0x4A6 JUMP JUMPDEST JUMPDEST DUP3 DUP3 DIV SWAP1 POP SWAP3 SWAP2 POP POP JUMP JUMPDEST PUSH1 0x0 DUP1 DUP3 SWAP2 POP DUP4 SWAP1 POP JUMPDEST PUSH1 0x1 DUP6 GT ISZERO PUSH3 0x253 JUMPI DUP1 DUP7 DIV DUP2 GT ISZERO PUSH3 0x22B JUMPI PUSH3 0x22A PUSH3 0x477 JUMP JUMPDEST JUMPDEST PUSH1 0x1 DUP6 AND ISZERO PUSH3 0x23B JUMPI DUP1 DUP3 MUL SWAP2 POP JUMPDEST DUP1 DUP2 MUL SWAP1 POP PUSH3 0x24B DUP6 PUSH3 0x4D5 JUMP JUMPDEST SWAP5 POP PUSH3 0x20B JUMP JUMPDEST SWAP5 POP SWAP5 SWAP3 POP POP POP JUMP JUMPDEST PUSH1 0x0 PUSH3 0x269 DUP3 PUSH3 0x435 JUMP JUMPDEST SWAP2 POP PUSH3 0x276 DUP4 PUSH3 0x435 JUMP JUMPDEST SWAP3 POP PUSH3 0x2A5 PUSH32 0xFFFFFFFFFFFFFFFFFFFFFFFFFFFFFFFFFFFFFFFFFFFFFFFFFFFFFFFFFFFFFFFF DUP5 DUP5 PUSH3 0x2AD JUMP JUMPDEST SWAP1 POP SWAP3 SWAP2 POP POP JUMP JUMPDEST PUSH1 0x0 DUP3 PUSH3 0x2BF JUMPI PUSH1 0x1 SWAP1 POP PUSH3 0x392 JUMP JUMPDEST DUP2 PUSH3 0x2CF JUMPI PUSH1 0x0 SWAP1 POP PUSH3 0x392 JUMP JUMPDEST DUP2 PUSH1 0x1 DUP2 EQ PUSH3 0x2E8 JUMPI PUSH1 0x2 DUP2 EQ PUSH3 0x2F3 JUMPI PUSH3 0x329 JUMP JUMPDEST PUSH1 0x1 SWAP2 POP POP PUSH3 0x392 JUMP JUMPDEST PUSH1 0xFF DUP5 GT ISZERO PUSH3 0x308 JUMPI PUSH3 0x307 PUSH3 0x477 JUMP JUMPDEST JUMPDEST DUP4 PUSH1 0x2 EXP SWAP2 POP DUP5 DUP3 GT ISZERO PUSH3 0x322 JUMPI PUSH3 0x321 PUSH3 0x477 JUMP JUMPDEST JUMPDEST POP PUSH3 0x392 JUMP JUMPDEST POP PUSH1 0x20 DUP4 LT PUSH2 0x133 DUP4 LT AND PUSH1 0x4E DUP5 LT PUSH1 0xB DUP5 LT AND OR ISZERO PUSH3 0x363 JUMPI DUP3 DUP3 EXP SWAP1 POP DUP4 DUP2 GT ISZERO PUSH3 0x35D JUMPI PUSH3 0x35C PUSH3 0x477 JUMP JUMPDEST JUMPDEST PUSH3 0x392 JUMP JUMPDEST PUSH3 0x372 DUP5 DUP5 DUP5 PUSH1 0x1 PUSH3 0x201 JUMP JUMPDEST SWAP3 POP SWAP1 POP DUP2 DUP5 DIV DUP2 GT ISZERO PUSH3 0x38C JUMPI PUSH3 0x38B PUSH3 0x477 JUMP JUMPDEST JUMPDEST DUP2 DUP2 MUL SWAP1 POP JUMPDEST SWAP4 SWAP3 POP POP POP JUMP JUMPDEST PUSH1 0x0 PUSH3 0x3A6 DUP3 PUSH3 0x435 JUMP JUMPDEST SWAP2 POP PUSH3 0x3B3 DUP4 PUSH3 0x435 JUMP JUMPDEST SWAP3 POP DUP2 PUSH32 0xFFFFFFFFFFFFFFFFFFFFFFFFFFFFFFFFFFFFFFFFFFFFFFFFFFFFFFFFFFFFFFFF DIV DUP4 GT DUP3 ISZERO ISZERO AND ISZERO PUSH3 0x3EF JUMPI PUSH3 0x3EE PUSH3 0x477 JUMP JUMPDEST JUMPDEST DUP3 DUP3 MUL SWAP1 POP SWAP3 SWAP2 POP POP JUMP JUMPDEST PUSH1 0x0 PUSH3 0x407 DUP3 PUSH3 0x435 JUMP JUMPDEST SWAP2 POP PUSH3 0x414 DUP4 PUSH3 0x435 JUMP JUMPDEST SWAP3 POP DUP3 DUP3 LT ISZERO PUSH3 0x42A JUMPI PUSH3 0x429 PUSH3 0x477 JUMP JUMPDEST JUMPDEST DUP3 DUP3 SUB SWAP1 POP SWAP3 SWAP2 POP POP JUMP JUMPDEST PUSH1 0x0 DUP2 SWAP1 POP SWAP2 SWAP1 POP JUMP JUMPDEST PUSH1 0x0 PUSH3 0x44C DUP3 PUSH3 0x435 JUMP JUMPDEST SWAP2 POP PUSH3 0x459 DUP4 PUSH3 0x435 JUMP JUMPDEST SWAP3 POP DUP3 PUSH3 0x46C JUMPI PUSH3 0x46B PUSH3 0x4A6 JUMP JUMPDEST JUMPDEST DUP3 DUP3 MOD SWAP1 POP SWAP3 SWAP2 POP POP JUMP JUMPDEST PUSH32 0x4E487B7100000000000000000000000000000000000000000000000000000000 PUSH1 0x0 MSTORE PUSH1 0x11 PUSH1 0x4 MSTORE PUSH1 0x24 PUSH1 0x0 REVERT JUMPDEST PUSH32 0x4E487B7100000000000000000000000000000000000000000000000000000000 PUSH1 0x0 MSTORE PUSH1 0x12 PUSH1 0x4 MSTORE PUSH1 0x24 PUSH1 0x0 REVERT JUMPDEST PUSH1 0x0 DUP2 PUSH1 0x1 SHR SWAP1 POP SWAP2 SWAP1 POP JUMP JUMPDEST PUSH2 0x51B DUP1 PUSH3 0x4F2 PUSH1 0x0 CODECOPY PUSH1 0x0 RETURN INVALID PUSH1 0x80 PUSH1 0x40 MSTORE CALLVALUE DUP1 ISZERO PUSH2 0x10 JUMPI PUSH1 0x0 DUP1 REVERT JUMPDEST POP PUSH1 0x4 CALLDATASIZE LT PUSH2 0xEA JUMPI PUSH1 0x0 CALLDATALOAD PUSH1 0xE0 SHR DUP1 PUSH4 0x6C3A28E1 GT PUSH2 0x8C JUMPI DUP1 PUSH4 0xB9E2FA35 GT PUSH2 0x66 JUMPI DUP1 PUSH4 0xB9E2FA35 EQ PUSH2 0x22D JUMPI DUP1 PUSH4 0xC76218E6 EQ PUSH2 0x24B JUMPI DUP1 PUSH4 0xE5935E3A EQ PUSH2 0x269 JUMPI DUP1 PUSH4 0xFA75054E EQ PUSH2 0x287 JUMPI PUSH2 0xEA JUMP JUMPDEST DUP1 PUSH4 0x6C3A28E1 EQ PUSH2 0x1D3 JUMPI DUP1 PUSH4 0x7E7D8EC6 EQ PUSH2 0x1F1 JUMPI DUP1 PUSH4 0x899EB49C EQ PUSH2 0x20F JUMPI PUSH2 0xEA JUMP JUMPDEST DUP1 PUSH4 0x40BA942C GT PUSH2 0xC8 JUMPI DUP1 PUSH4 0x40BA942C EQ PUSH2 0x149 JUMPI DUP1 PUSH4 0x4417E597 EQ PUSH2 0x167 JUMPI DUP1 PUSH4 0x55079601 EQ PUSH2 0x185 JUMPI DUP1 PUSH4 0x663BC990 EQ PUSH2 0x1B5 JUMPI PUSH2 0xEA JUMP JUMPDEST DUP1 PUSH4 0x3205F5FC EQ PUSH2 0xEF JUMPI DUP1 PUSH4 0x3475A3ED EQ PUSH2 0x10D JUMPI DUP1 PUSH4 0x357D4974 EQ PUSH2 0x12B JUMPI JUMPDEST PUSH1 0x0 DUP1 REVERT JUMPDEST PUSH2 0xF7 PUSH2 0x2B7 JUMP JUMPDEST PUSH1 0x40 MLOAD PUSH2 0x104 SWAP2 SWAP1 PUSH2 0x43D JUMP JUMPDEST PUSH1 0x40 MLOAD DUP1 SWAP2 SUB SWAP1 RETURN JUMPDEST PUSH2 0x115 PUSH2 0x2BD JUMP JUMPDEST PUSH1 0x40 MLOAD PUSH2 0x122 SWAP2 SWAP1 PUSH2 0x43D JUMP JUMPDEST PUSH1 0x40 MLOAD DUP1 SWAP2 SUB SWAP1 RETURN JUMPDEST PUSH2 0x133 PUSH2 0x2C3 JUMP JUMPDEST PUSH1 0x40 MLOAD PUSH2 0x140 SWAP2 SWAP1 PUSH2 0x422 JUMP JUMPDEST PUSH1 0x40 MLOAD DUP1 SWAP2 SUB SWAP1 RETURN JUMPDEST PUSH2 0x151 PUSH2 0x2D6 JUMP JUMPDEST PUSH1 0x40 MLOAD PUSH2 0x15E SWAP2 SWAP1 PUSH2 0x43D JUMP JUMPDEST PUSH1 0x40 MLOAD DUP1 SWAP2 SUB SWAP1 RETURN JUMPDEST PUSH2 0x16F PUSH2 0x2DC JUMP JUMPDEST PUSH1 0x40 MLOAD PUSH2 0x17C SWAP2 SWAP1 PUSH2 0x422 JUMP JUMPDEST PUSH1 0x40 MLOAD DUP1 SWAP2 SUB SWAP1 RETURN JUMPDEST PUSH2 0x19F PUSH1 0x4 DUP1 CALLDATASIZE SUB DUP2 ADD SWAP1 PUSH2 0x19A SWAP2 SWAP1 PUSH2 0x3DB JUMP JUMPDEST PUSH2 0x2EF JUMP JUMPDEST PUSH1 0x40 MLOAD PUSH2 0x1AC SWAP2 SWAP1 PUSH2 0x422 JUMP JUMPDEST PUSH1 0x40 MLOAD DUP1 SWAP2 SUB SWAP1 RETURN JUMPDEST PUSH2 0x1BD PUSH2 0x32A JUMP JUMPDEST PUSH1 0x40 MLOAD PUSH2 0x1CA SWAP2 SWAP1 PUSH2 0x422 JUMP JUMPDEST PUSH1 0x40 MLOAD DUP1 SWAP2 SUB SWAP1 RETURN JUMPDEST PUSH2 0x1DB PUSH2 0x33D JUMP JUMPDEST PUSH1 0x40 MLOAD PUSH2 0x1E8 SWAP2 SWAP1 PUSH2 0x43D JUMP JUMPDEST PUSH1 0x40 MLOAD DUP1 SWAP2 SUB SWAP1 RETURN JUMPDEST PUSH2 0x1F9 PUSH2 0x343 JUMP JUMPDEST PUSH1 0x40 MLOAD PUSH2 0x206 SWAP2 SWAP1 PUSH2 0x43D JUMP JUMPDEST PUSH1 0x40 MLOAD DUP1 SWAP2 SUB SWAP1 RETURN JUMPDEST PUSH2 0x217 PUSH2 0x349 JUMP JUMPDEST PUSH1 0x40 MLOAD PUSH2 0x224 SWAP2 SWAP1 PUSH2 0x422 JUMP JUMPDEST PUSH1 0x40 MLOAD DUP1 SWAP2 SUB SWAP1 RETURN JUMPDEST PUSH2 0x235 PUSH2 0x35C JUMP JUMPDEST PUSH1 0x40 MLOAD PUSH2 0x242 SWAP2 SWAP1 PUSH2 0x422 JUMP JUMPDEST PUSH1 0x40 MLOAD DUP1 SWAP2 SUB SWAP1 RETURN JUMPDEST PUSH2 0x253 PUSH2 0x36F JUMP JUMPDEST PUSH1 0x40 MLOAD PUSH2 0x260 SWAP2 SWAP1 PUSH2 0x43D JUMP JUMPDEST PUSH1 0x40 MLOAD DUP1 SWAP2 SUB SWAP1 RETURN JUMPDEST PUSH2 0x271 PUSH2 0x375 JUMP JUMPDEST PUSH1 0x40 MLOAD PUSH2 0x27E SWAP2 SWAP1 PUSH2 0x422 JUMP JUMPDEST PUSH1 0x40 MLOAD DUP1 SWAP2 SUB SWAP1 RETURN JUMPDEST PUSH2 0x2A1 PUSH1 0x4 DUP1 CALLDATASIZE SUB DUP2 ADD SWAP1 PUSH2 0x29C SWAP2 SWAP1 PUSH2 0x3DB JUMP JUMPDEST PUSH2 0x388 JUMP JUMPDEST PUSH1 0x40 MLOAD PUSH2 0x2AE SWAP2 SWAP1 PUSH2 0x422 JUMP JUMPDEST PUSH1 0x40 MLOAD DUP1 SWAP2 SUB SWAP1 RETURN JUMPDEST PUSH1 0x4 SLOAD DUP2 JUMP JUMPDEST PUSH1 0x3 SLOAD DUP2 JUMP JUMPDEST PUSH1 0xA PUSH1 0x5 SWAP1 SLOAD SWAP1 PUSH2 0x100 EXP SWAP1 DIV PUSH1 0xFF AND DUP2 JUMP JUMPDEST PUSH1 0x7 SLOAD DUP2 JUMP JUMPDEST PUSH1 0xA PUSH1 0x4 SWAP1 SLOAD SWAP1 PUSH2 0x100 EXP SWAP1 DIV PUSH1 0xFF AND DUP2 JUMP JUMPDEST PUSH1 0x0 DUP1 PUSH1 0xA DUP4 PUSH2 0x2FF SWAP2 SWAP1 PUSH2 0x46E JUMP JUMPDEST SWAP1 POP PUSH1 0x0 DUP2 EQ DUP1 PUSH2 0x310 JUMPI POP PUSH1 0x5 DUP2 EQ JUMPDEST ISZERO PUSH2 0x31F JUMPI PUSH1 0x1 SWAP2 POP POP PUSH2 0x325 JUMP JUMPDEST PUSH1 0x0 SWAP2 POP POP JUMPDEST SWAP2 SWAP1 POP JUMP JUMPDEST PUSH1 0xA PUSH1 0x0 SWAP1 SLOAD SWAP1 PUSH2 0x100 EXP SWAP1 DIV PUSH1 0xFF AND DUP2 JUMP JUMPDEST PUSH1 0x6 SLOAD DUP2 JUMP JUMPDEST PUSH1 0x2 SLOAD DUP2 JUMP JUMPDEST PUSH1 0xA PUSH1 0x1 SWAP1 SLOAD SWAP1 PUSH2 0x100 EXP SWAP1 DIV PUSH1 0xFF AND DUP2 JUMP JUMPDEST PUSH1 0xA PUSH1 0x2 SWAP1 SLOAD SWAP1 PUSH2 0x100 EXP SWAP1 DIV PUSH1 0xFF AND DUP2 JUMP JUMPDEST PUSH1 0x5 SLOAD DUP2 JUMP JUMPDEST PUSH1 0xA PUSH1 0x3 SWAP1 SLOAD SWAP1 PUSH2 0x100 EXP SWAP1 DIV PUSH1 0xFF AND DUP2 JUMP JUMPDEST PUSH1 0x0 DUP1 PUSH1 0xA DUP4 PUSH2 0x398 SWAP2 SWAP1 PUSH2 0x46E JUMP JUMPDEST SWAP1 POP PUSH1 0x0 DUP2 EQ ISZERO DUP1 ISZERO PUSH2 0x3AC JUMPI POP PUSH1 0x5 DUP2 EQ ISZERO JUMPDEST ISZERO PUSH2 0x3BB JUMPI PUSH1 0x0 SWAP2 POP POP PUSH2 0x3C1 JUMP JUMPDEST PUSH1 0x1 SWAP2 POP POP JUMPDEST SWAP2 SWAP1 POP JUMP JUMPDEST PUSH1 0x0 DUP2 CALLDATALOAD SWAP1 POP PUSH2 0x3D5 DUP2 PUSH2 0x4CE JUMP JUMPDEST SWAP3 SWAP2 POP POP JUMP JUMPDEST PUSH1 0x0 PUSH1 0x20 DUP3 DUP5 SUB SLT ISZERO PUSH2 0x3ED JUMPI PUSH1 0x0 DUP1 REVERT JUMPDEST PUSH1 0x0 PUSH2 0x3FB DUP5 DUP3 DUP6 ADD PUSH2 0x3C6 JUMP JUMPDEST SWAP2 POP POP SWAP3 SWAP2 POP POP JUMP JUMPDEST PUSH2 0x40D DUP2 PUSH2 0x458 JUMP JUMPDEST DUP3 MSTORE POP POP JUMP JUMPDEST PUSH2 0x41C DUP2 PUSH2 0x464 JUMP JUMPDEST DUP3 MSTORE POP POP JUMP JUMPDEST PUSH1 0x0 PUSH1 0x20 DUP3 ADD SWAP1 POP PUSH2 0x437 PUSH1 0x0 DUP4 ADD DUP5 PUSH2 0x404 JUMP JUMPDEST SWAP3 SWAP2 POP POP JUMP JUMPDEST PUSH1 0x0 PUSH1 0x20 DUP3 ADD SWAP1 POP PUSH2 0x452 PUSH1 0x0 DUP4 ADD DUP5 PUSH2 0x413 JUMP JUMPDEST SWAP3 SWAP2 POP POP JUMP JUMPDEST PUSH1 0x0 DUP2 ISZERO ISZERO SWAP1 POP SWAP2 SWAP1 POP JUMP JUMPDEST PUSH1 0x0 DUP2 SWAP1 POP SWAP2 SWAP1 POP JUMP JUMPDEST PUSH1 0x0 PUSH2 0x479 DUP3 PUSH2 0x464 JUMP JUMPDEST SWAP2 POP PUSH2 0x484 DUP4 PUSH2 0x464 JUMP JUMPDEST SWAP3 POP DUP3 PUSH2 0x494 JUMPI PUSH2 0x493 PUSH2 0x49F JUMP JUMPDEST JUMPDEST DUP3 DUP3 MOD SWAP1 POP SWAP3 SWAP2 POP POP JUMP JUMPDEST PUSH32 0x4E487B7100000000000000000000000000000000000000000000000000000000 PUSH1 0x0 MSTORE PUSH1 0x12 PUSH1 0x4 MSTORE PUSH1 0x24 PUSH1 0x0 REVERT JUMPDEST PUSH2 0x4D7 DUP2 PUSH2 0x464 JUMP JUMPDEST DUP2 EQ PUSH2 0x4E2 JUMPI PUSH1 0x0 DUP1 REVERT JUMPDEST POP JUMP INVALID LOG2 PUSH5 0x6970667358 0x22 SLT KECCAK256 SDIV XOR 0x5E SWAP7 0xD4 SMOD PUSH29 0x4A9399743212A4794B5B3FB5F5A5B1247F58790285857F20BB64736F6C PUSH4 0x43000800 STOP CALLER "
		},
		"gasEstimates": {
			"creation": {
				"codeDepositCost": "261400",
				"executionCost": "infinite",
				"totalCost": "infinite"
			},
			"external": {
				"divisibilidad(uint256)": "infinite",
				"divisibilidadV2(uint256)": "infinite",
				"division()": "1153",
				"exponenciacion()": "1152",
				"multiplicacion()": "1173",
				"residuo()": "1152",
				"resta()": "1175",
				"suma()": "1174",
				"test_1()": "1260",
				"test_2()": "1288",
				"test_3()": "1243",
				"test_4()": "1287",
				"test_5()": "1266",
				"test_6()": "1289"
			}
		},
		"methodIdentifiers": {
			"divisibilidad(uint256)": "55079601",
			"divisibilidadV2(uint256)": "fa75054e",
			"division()": "3205f5fc",
			"exponenciacion()": "40ba942c",
			"multiplicacion()": "c76218e6",
			"residuo()": "6c3a28e1",
			"resta()": "3475a3ed",
			"suma()": "7e7d8ec6",
			"test_1()": "663bc990",
			"test_2()": "899eb49c",
			"test_3()": "b9e2fa35",
			"test_4()": "e5935e3a",
			"test_5()": "4417e597",
			"test_6()": "357d4974"
		}
	},
	"abi": [
		{
			"inputs": [
				{
					"internalType": "uint256",
					"name": "_k",
					"type": "uint256"
				}
			],
			"name": "divisibilidad",
			"outputs": [
				{
					"internalType": "bool",
					"name": "",
					"type": "bool"
				}
			],
			"stateMutability": "pure",
			"type": "function"
		},
		{
			"inputs": [
				{
					"internalType": "uint256",
					"name": "_k",
					"type": "uint256"
				}
			],
			"name": "divisibilidadV2",
			"outputs": [
				{
					"internalType": "bool",
					"name": "",
					"type": "bool"
				}
			],
			"stateMutability": "pure",
			"type": "function"
		},
		{
			"inputs": [],
			"name": "division",
			"outputs": [
				{
					"internalType": "uint256",
					"name": "",
					"type": "uint256"
				}
			],
			"stateMutability": "view",
			"type": "function"
		},
		{
			"inputs": [],
			"name": "exponenciacion",
			"outputs": [
				{
					"internalType": "uint256",
					"name": "",
					"type": "uint256"
				}
			],
			"stateMutability": "view",
			"type": "function"
		},
		{
			"inputs": [],
			"name": "multiplicacion",
			"outputs": [
				{
					"internalType": "uint256",
					"name": "",
					"type": "uint256"
				}
			],
			"stateMutability": "view",
			"type": "function"
		},
		{
			"inputs": [],
			"name": "residuo",
			"outputs": [
				{
					"internalType": "uint256",
					"name": "",
					"type": "uint256"
				}
			],
			"stateMutability": "view",
			"type": "function"
		},
		{
			"inputs": [],
			"name": "resta",
			"outputs": [
				{
					"internalType": "uint256",
					"name": "",
					"type": "uint256"
				}
			],
			"stateMutability": "view",
			"type": "function"
		},
		{
			"inputs": [],
			"name": "suma",
			"outputs": [
				{
					"internalType": "uint256",
					"name": "",
					"type": "uint256"
				}
			],
			"stateMutability": "view",
			"type": "function"
		},
		{
			"inputs": [],
			"name": "test_1",
			"outputs": [
				{
					"internalType": "bool",
					"name": "",
					"type": "bool"
				}
			],
			"stateMutability": "view",
			"type": "function"
		},
		{
			"inputs": [],
			"name": "test_2",
			"outputs": [
				{
					"internalType": "bool",
					"name": "",
					"type": "bool"
				}
			],
			"stateMutability": "view",
			"type": "function"
		},
		{
			"inputs": [],
			"name": "test_3",
			"outputs": [
				{
					"internalType": "bool",
					"name": "",
					"type": "bool"
				}
			],
			"stateMutability": "view",
			"type": "function"
		},
		{
			"inputs": [],
			"name": "test_4",
			"outputs": [
				{
					"internalType": "bool",
					"name": "",
					"type": "bool"
				}
			],
			"stateMutability": "view",
			"type": "function"
		},
		{
			"inputs": [],
			"name": "test_5",
			"outputs": [
				{
					"internalType": "bool",
					"name": "",
					"type": "bool"
				}
			],
			"stateMutability": "view",
			"type": "function"
		},
		{
			"inputs": [],
			"name": "test_6",
			"outputs": [
				{
					"internalType": "bool",
					"name": "",
					"type": "bool"
				}
			],
			"stateMutability": "view",
			"type": "function"
		}
	]
}