{
	"data": {
		"bytecode": {
			"linkReferences": {},
			"object": "6080604052603c60005542600155611c20600255620d2f0060035562093a8060045534801561002d57600080fd5b506101f68061003d6000396000f3fe608060405234801561001057600080fd5b50600436106100885760003560e01c8063827ffcea1161005b578063827ffcea1461010557806390da4b3814610123578063a3c0f37414610141578063ab6db1991461015f57610088565b80632b8667591461008d5780634ef06f5f146100ab5780636d19633b146100c9578063806c4f1d146100e7575b600080fd5b61009561017d565b6040518082815260200191505060405180910390f35b6100b3610183565b6040518082815260200191505060405180910390f35b6100d1610189565b6040518082815260200191505060405180910390f35b6100ef610194565b6040518082815260200191505060405180910390f35b61010d6101a1565b6040518082815260200191505060405180910390f35b61012b6101a7565b6040518082815260200191505060405180910390f35b6101496101b4565b6040518082815260200191505060405180910390f35b6101676101ba565b6040518082815260200191505060405180910390f35b60015481565b60045481565b600060324201905090565b6000625c49004201905090565b60025481565b6000620d2f004201905090565b60005481565b6003548156fea26469706673582212202e3b952259da8658d1fd90ecc6981954f69fed4ee8b55ed6cc1922974b469f8964736f6c63430006000033",
			"opcodes": "PUSH1 0x80 PUSH1 0x40 MSTORE PUSH1 0x3C PUSH1 0x0 SSTORE TIMESTAMP PUSH1 0x1 SSTORE PUSH2 0x1C20 PUSH1 0x2 SSTORE PUSH3 0xD2F00 PUSH1 0x3 SSTORE PUSH3 0x93A80 PUSH1 0x4 SSTORE CALLVALUE DUP1 ISZERO PUSH2 0x2D JUMPI PUSH1 0x0 DUP1 REVERT JUMPDEST POP PUSH2 0x1F6 DUP1 PUSH2 0x3D PUSH1 0x0 CODECOPY PUSH1 0x0 RETURN INVALID PUSH1 0x80 PUSH1 0x40 MSTORE CALLVALUE DUP1 ISZERO PUSH2 0x10 JUMPI PUSH1 0x0 DUP1 REVERT JUMPDEST POP PUSH1 0x4 CALLDATASIZE LT PUSH2 0x88 JUMPI PUSH1 0x0 CALLDATALOAD PUSH1 0xE0 SHR DUP1 PUSH4 0x827FFCEA GT PUSH2 0x5B JUMPI DUP1 PUSH4 0x827FFCEA EQ PUSH2 0x105 JUMPI DUP1 PUSH4 0x90DA4B38 EQ PUSH2 0x123 JUMPI DUP1 PUSH4 0xA3C0F374 EQ PUSH2 0x141 JUMPI DUP1 PUSH4 0xAB6DB199 EQ PUSH2 0x15F JUMPI PUSH2 0x88 JUMP JUMPDEST DUP1 PUSH4 0x2B866759 EQ PUSH2 0x8D JUMPI DUP1 PUSH4 0x4EF06F5F EQ PUSH2 0xAB JUMPI DUP1 PUSH4 0x6D19633B EQ PUSH2 0xC9 JUMPI DUP1 PUSH4 0x806C4F1D EQ PUSH2 0xE7 JUMPI JUMPDEST PUSH1 0x0 DUP1 REVERT JUMPDEST PUSH2 0x95 PUSH2 0x17D JUMP JUMPDEST PUSH1 0x40 MLOAD DUP1 DUP3 DUP2 MSTORE PUSH1 0x20 ADD SWAP2 POP POP PUSH1 0x40 MLOAD DUP1 SWAP2 SUB SWAP1 RETURN JUMPDEST PUSH2 0xB3 PUSH2 0x183 JUMP JUMPDEST PUSH1 0x40 MLOAD DUP1 DUP3 DUP2 MSTORE PUSH1 0x20 ADD SWAP2 POP POP PUSH1 0x40 MLOAD DUP1 SWAP2 SUB SWAP1 RETURN JUMPDEST PUSH2 0xD1 PUSH2 0x189 JUMP JUMPDEST PUSH1 0x40 MLOAD DUP1 DUP3 DUP2 MSTORE PUSH1 0x20 ADD SWAP2 POP POP PUSH1 0x40 MLOAD DUP1 SWAP2 SUB SWAP1 RETURN JUMPDEST PUSH2 0xEF PUSH2 0x194 JUMP JUMPDEST PUSH1 0x40 MLOAD DUP1 DUP3 DUP2 MSTORE PUSH1 0x20 ADD SWAP2 POP POP PUSH1 0x40 MLOAD DUP1 SWAP2 SUB SWAP1 RETURN JUMPDEST PUSH2 0x10D PUSH2 0x1A1 JUMP JUMPDEST PUSH1 0x40 MLOAD DUP1 DUP3 DUP2 MSTORE PUSH1 0x20 ADD SWAP2 POP POP PUSH1 0x40 MLOAD DUP1 SWAP2 SUB SWAP1 RETURN JUMPDEST PUSH2 0x12B PUSH2 0x1A7 JUMP JUMPDEST PUSH1 0x40 MLOAD DUP1 DUP3 DUP2 MSTORE PUSH1 0x20 ADD SWAP2 POP POP PUSH1 0x40 MLOAD DUP1 SWAP2 SUB SWAP1 RETURN JUMPDEST PUSH2 0x149 PUSH2 0x1B4 JUMP JUMPDEST PUSH1 0x40 MLOAD DUP1 DUP3 DUP2 MSTORE PUSH1 0x20 ADD SWAP2 POP POP PUSH1 0x40 MLOAD DUP1 SWAP2 SUB SWAP1 RETURN JUMPDEST PUSH2 0x167 PUSH2 0x1BA JUMP JUMPDEST PUSH1 0x40 MLOAD DUP1 DUP3 DUP2 MSTORE PUSH1 0x20 ADD SWAP2 POP POP PUSH1 0x40 MLOAD DUP1 SWAP2 SUB SWAP1 RETURN JUMPDEST PUSH1 0x1 SLOAD DUP2 JUMP JUMPDEST PUSH1 0x4 SLOAD DUP2 JUMP JUMPDEST PUSH1 0x0 PUSH1 0x32 TIMESTAMP ADD SWAP1 POP SWAP1 JUMP JUMPDEST PUSH1 0x0 PUSH3 0x5C4900 TIMESTAMP ADD SWAP1 POP SWAP1 JUMP JUMPDEST PUSH1 0x2 SLOAD DUP2 JUMP JUMPDEST PUSH1 0x0 PUSH3 0xD2F00 TIMESTAMP ADD SWAP1 POP SWAP1 JUMP JUMPDEST PUSH1 0x0 SLOAD DUP2 JUMP JUMPDEST PUSH1 0x3 SLOAD DUP2 JUMP INVALID LOG2 PUSH5 0x6970667358 0x22 SLT KECCAK256 0x2E EXTCODESIZE SWAP6 0x22 MSIZE 0xDA DUP7 PC 0xD1 REVERT SWAP1 0xEC 0xC6 SWAP9 NOT SLOAD 0xF6 SWAP16 0xED 0x4E 0xE8 0xB5 0x5E 0xD6 0xCC NOT 0x22 SWAP8 0x4B CHAINID SWAP16 DUP10 PUSH5 0x736F6C6343 STOP MOD STOP STOP CALLER "
		},
		"gasEstimates": {
			"creation": {
				"codeDepositCost": "100400",
				"executionCost": "100176",
				"totalCost": "200576"
			},
			"external": {
				"ahora()": "1006",
				"dias()": "1071",
				"horas()": "1005",
				"masSemanas()": "285",
				"masdias()": "240",
				"massegundos()": "263",
				"minut()": "1049",
				"semanas()": "1028"
			}
		},
		"methodIdentifiers": {
			"ahora()": "2b866759",
			"dias()": "ab6db199",
			"horas()": "827ffcea",
			"masSemanas()": "806c4f1d",
			"masdias()": "90da4b38",
			"massegundos()": "6d19633b",
			"minut()": "a3c0f374",
			"semanas()": "4ef06f5f"
		}
	},
	"abi": [
		{
			"inputs": [],
			"name": "ahora",
			"outputs": [
				{
					"internalType": "uint256",
					"name": "",
					"type": "uint256"
				}
			],
			"stateMutability": "view",
			"type": "function"
		},
		{
			"inputs": [],
			"name": "dias",
			"outputs": [
				{
					"internalType": "uint256",
					"name": "",
					"type": "uint256"
				}
			],
			"stateMutability": "view",
			"type": "function"
		},
		{
			"inputs": [],
			"name": "horas",
			"outputs": [
				{
					"internalType": "uint256",
					"name": "",
					"type": "uint256"
				}
			],
			"stateMutability": "view",
			"type": "function"
		},
		{
			"inputs": [],
			"name": "masSemanas",
			"outputs": [
				{
					"internalType": "uint256",
					"name": "",
					"type": "uint256"
				}
			],
			"stateMutability": "view",
			"type": "function"
		},
		{
			"inputs": [],
			"name": "masdias",
			"outputs": [
				{
					"internalType": "uint256",
					"name": "",
					"type": "uint256"
				}
			],
			"stateMutability": "view",
			"type": "function"
		},
		{
			"inputs": [],
			"name": "massegundos",
			"outputs": [
				{
					"internalType": "uint256",
					"name": "",
					"type": "uint256"
				}
			],
			"stateMutability": "view",
			"type": "function"
		},
		{
			"inputs": [],
			"name": "minut",
			"outputs": [
				{
					"internalType": "uint256",
					"name": "",
					"type": "uint256"
				}
			],
			"stateMutability": "view",
			"type": "function"
		},
		{
			"inputs": [],
			"name": "semanas",
			"outputs": [
				{
					"internalType": "uint256",
					"name": "",
					"type": "uint256"
				}
			],
			"stateMutability": "view",
			"type": "function"
		}
	]
}