{
	"data": {
		"bytecode": {
			"linkReferences": {},
			"object": "608060405234801561001057600080fd5b5061064b806100206000396000f3fe608060405234801561001057600080fd5b506004361061004c5760003560e01c806314d07a25146100515780636529ade31461006d578063abefda8114610077578063c355a3e514610093575b600080fd5b61006b60048036038101906100669190610283565b6100af565b005b610075610120565b005b610091600480360381019061008c9190610242565b61014e565b005b6100ad60048036038101906100a89190610283565b610188565b005b60008282336040516020016100c69392919061039c565b6040516020818303038152906040528051906020012090507fdbd81921b3ce1639a51308e134a5f57baf72f740a57d81a02341afbbd578b546838333846040516101139493929190610427565b60405180910390a1505050565b7f9f2c8877eeb6e22e94438633d64a43489fefb752521080a2f01e64a03feb270b60405160405180910390a1565b7fdc8fea928bea4569bf6692518e4ac0292bbbd7b0404120d6137a81d61a6330318160405161017d91906103d5565b60405180910390a150565b7f62ba97cb835b5cc89c9cfd8f3ae41bfe9b5820735d3af1629efcb34105d381b082826040516101b99291906103f7565b60405180910390a15050565b60006101d86101d3846104a4565b610473565b9050828152602081018484840111156101f057600080fd5b6101fb848285610541565b509392505050565b600082601f83011261021457600080fd5b81356102248482602086016101c5565b91505092915050565b60008135905061023c816105fe565b92915050565b60006020828403121561025457600080fd5b600082013567ffffffffffffffff81111561026e57600080fd5b61027a84828501610203565b91505092915050565b6000806040838503121561029657600080fd5b600083013567ffffffffffffffff8111156102b057600080fd5b6102bc85828601610203565b92505060206102cd8582860161022d565b9150509250929050565b6102e0816104fb565b82525050565b6102f76102f2826104fb565b610583565b82525050565b6103068161050d565b82525050565b6000610317826104d4565b61032181856104df565b9350610331818560208601610550565b61033a816105e0565b840191505092915050565b6000610350826104d4565b61035a81856104f0565b935061036a818560208601610550565b80840191505092915050565b61037f81610537565b82525050565b61039661039182610537565b6105a7565b82525050565b60006103a88286610345565b91506103b48285610385565b6020820191506103c482846102e6565b601482019150819050949350505050565b600060208201905081810360008301526103ef818461030c565b905092915050565b60006040820190508181036000830152610411818561030c565b90506104206020830184610376565b9392505050565b60006080820190508181036000830152610441818761030c565b90506104506020830186610376565b61045d60408301856102d7565b61046a60608301846102fd565b95945050505050565b6000604051905081810181811067ffffffffffffffff8211171561049a576104996105b1565b5b8060405250919050565b600067ffffffffffffffff8211156104bf576104be6105b1565b5b601f19601f8301169050602081019050919050565b600081519050919050565b600082825260208201905092915050565b600081905092915050565b600061050682610517565b9050919050565b6000819050919050565b600073ffffffffffffffffffffffffffffffffffffffff82169050919050565b6000819050919050565b82818337600083830152505050565b60005b8381101561056e578082015181840152602081019050610553565b8381111561057d576000848401525b50505050565b600061058e82610595565b9050919050565b60006105a0826105f1565b9050919050565b6000819050919050565b7f4e487b7100000000000000000000000000000000000000000000000000000000600052604160045260246000fd5b6000601f19601f8301169050919050565b60008160601b9050919050565b61060781610537565b811461061257600080fd5b5056fea264697066735822122060ae72cde43032ba960c5f25f06a06d491580fc1bc46a307d6f40723567eb6a064736f6c63430008000033",
			"opcodes": "PUSH1 0x80 PUSH1 0x40 MSTORE CALLVALUE DUP1 ISZERO PUSH2 0x10 JUMPI PUSH1 0x0 DUP1 REVERT JUMPDEST POP PUSH2 0x64B DUP1 PUSH2 0x20 PUSH1 0x0 CODECOPY PUSH1 0x0 RETURN INVALID PUSH1 0x80 PUSH1 0x40 MSTORE CALLVALUE DUP1 ISZERO PUSH2 0x10 JUMPI PUSH1 0x0 DUP1 REVERT JUMPDEST POP PUSH1 0x4 CALLDATASIZE LT PUSH2 0x4C JUMPI PUSH1 0x0 CALLDATALOAD PUSH1 0xE0 SHR DUP1 PUSH4 0x14D07A25 EQ PUSH2 0x51 JUMPI DUP1 PUSH4 0x6529ADE3 EQ PUSH2 0x6D JUMPI DUP1 PUSH4 0xABEFDA81 EQ PUSH2 0x77 JUMPI DUP1 PUSH4 0xC355A3E5 EQ PUSH2 0x93 JUMPI JUMPDEST PUSH1 0x0 DUP1 REVERT JUMPDEST PUSH2 0x6B PUSH1 0x4 DUP1 CALLDATASIZE SUB DUP2 ADD SWAP1 PUSH2 0x66 SWAP2 SWAP1 PUSH2 0x283 JUMP JUMPDEST PUSH2 0xAF JUMP JUMPDEST STOP JUMPDEST PUSH2 0x75 PUSH2 0x120 JUMP JUMPDEST STOP JUMPDEST PUSH2 0x91 PUSH1 0x4 DUP1 CALLDATASIZE SUB DUP2 ADD SWAP1 PUSH2 0x8C SWAP2 SWAP1 PUSH2 0x242 JUMP JUMPDEST PUSH2 0x14E JUMP JUMPDEST STOP JUMPDEST PUSH2 0xAD PUSH1 0x4 DUP1 CALLDATASIZE SUB DUP2 ADD SWAP1 PUSH2 0xA8 SWAP2 SWAP1 PUSH2 0x283 JUMP JUMPDEST PUSH2 0x188 JUMP JUMPDEST STOP JUMPDEST PUSH1 0x0 DUP3 DUP3 CALLER PUSH1 0x40 MLOAD PUSH1 0x20 ADD PUSH2 0xC6 SWAP4 SWAP3 SWAP2 SWAP1 PUSH2 0x39C JUMP JUMPDEST PUSH1 0x40 MLOAD PUSH1 0x20 DUP2 DUP4 SUB SUB DUP2 MSTORE SWAP1 PUSH1 0x40 MSTORE DUP1 MLOAD SWAP1 PUSH1 0x20 ADD KECCAK256 SWAP1 POP PUSH32 0xDBD81921B3CE1639A51308E134A5F57BAF72F740A57D81A02341AFBBD578B546 DUP4 DUP4 CALLER DUP5 PUSH1 0x40 MLOAD PUSH2 0x113 SWAP5 SWAP4 SWAP3 SWAP2 SWAP1 PUSH2 0x427 JUMP JUMPDEST PUSH1 0x40 MLOAD DUP1 SWAP2 SUB SWAP1 LOG1 POP POP POP JUMP JUMPDEST PUSH32 0x9F2C8877EEB6E22E94438633D64A43489FEFB752521080A2F01E64A03FEB270B PUSH1 0x40 MLOAD PUSH1 0x40 MLOAD DUP1 SWAP2 SUB SWAP1 LOG1 JUMP JUMPDEST PUSH32 0xDC8FEA928BEA4569BF6692518E4AC0292BBBD7B0404120D6137A81D61A633031 DUP2 PUSH1 0x40 MLOAD PUSH2 0x17D SWAP2 SWAP1 PUSH2 0x3D5 JUMP JUMPDEST PUSH1 0x40 MLOAD DUP1 SWAP2 SUB SWAP1 LOG1 POP JUMP JUMPDEST PUSH32 0x62BA97CB835B5CC89C9CFD8F3AE41BFE9B5820735D3AF1629EFCB34105D381B0 DUP3 DUP3 PUSH1 0x40 MLOAD PUSH2 0x1B9 SWAP3 SWAP2 SWAP1 PUSH2 0x3F7 JUMP JUMPDEST PUSH1 0x40 MLOAD DUP1 SWAP2 SUB SWAP1 LOG1 POP POP JUMP JUMPDEST PUSH1 0x0 PUSH2 0x1D8 PUSH2 0x1D3 DUP5 PUSH2 0x4A4 JUMP JUMPDEST PUSH2 0x473 JUMP JUMPDEST SWAP1 POP DUP3 DUP2 MSTORE PUSH1 0x20 DUP2 ADD DUP5 DUP5 DUP5 ADD GT ISZERO PUSH2 0x1F0 JUMPI PUSH1 0x0 DUP1 REVERT JUMPDEST PUSH2 0x1FB DUP5 DUP3 DUP6 PUSH2 0x541 JUMP JUMPDEST POP SWAP4 SWAP3 POP POP POP JUMP JUMPDEST PUSH1 0x0 DUP3 PUSH1 0x1F DUP4 ADD SLT PUSH2 0x214 JUMPI PUSH1 0x0 DUP1 REVERT JUMPDEST DUP2 CALLDATALOAD PUSH2 0x224 DUP5 DUP3 PUSH1 0x20 DUP7 ADD PUSH2 0x1C5 JUMP JUMPDEST SWAP2 POP POP SWAP3 SWAP2 POP POP JUMP JUMPDEST PUSH1 0x0 DUP2 CALLDATALOAD SWAP1 POP PUSH2 0x23C DUP2 PUSH2 0x5FE JUMP JUMPDEST SWAP3 SWAP2 POP POP JUMP JUMPDEST PUSH1 0x0 PUSH1 0x20 DUP3 DUP5 SUB SLT ISZERO PUSH2 0x254 JUMPI PUSH1 0x0 DUP1 REVERT JUMPDEST PUSH1 0x0 DUP3 ADD CALLDATALOAD PUSH8 0xFFFFFFFFFFFFFFFF DUP2 GT ISZERO PUSH2 0x26E JUMPI PUSH1 0x0 DUP1 REVERT JUMPDEST PUSH2 0x27A DUP5 DUP3 DUP6 ADD PUSH2 0x203 JUMP JUMPDEST SWAP2 POP POP SWAP3 SWAP2 POP POP JUMP JUMPDEST PUSH1 0x0 DUP1 PUSH1 0x40 DUP4 DUP6 SUB SLT ISZERO PUSH2 0x296 JUMPI PUSH1 0x0 DUP1 REVERT JUMPDEST PUSH1 0x0 DUP4 ADD CALLDATALOAD PUSH8 0xFFFFFFFFFFFFFFFF DUP2 GT ISZERO PUSH2 0x2B0 JUMPI PUSH1 0x0 DUP1 REVERT JUMPDEST PUSH2 0x2BC DUP6 DUP3 DUP7 ADD PUSH2 0x203 JUMP JUMPDEST SWAP3 POP POP PUSH1 0x20 PUSH2 0x2CD DUP6 DUP3 DUP7 ADD PUSH2 0x22D JUMP JUMPDEST SWAP2 POP POP SWAP3 POP SWAP3 SWAP1 POP JUMP JUMPDEST PUSH2 0x2E0 DUP2 PUSH2 0x4FB JUMP JUMPDEST DUP3 MSTORE POP POP JUMP JUMPDEST PUSH2 0x2F7 PUSH2 0x2F2 DUP3 PUSH2 0x4FB JUMP JUMPDEST PUSH2 0x583 JUMP JUMPDEST DUP3 MSTORE POP POP JUMP JUMPDEST PUSH2 0x306 DUP2 PUSH2 0x50D JUMP JUMPDEST DUP3 MSTORE POP POP JUMP JUMPDEST PUSH1 0x0 PUSH2 0x317 DUP3 PUSH2 0x4D4 JUMP JUMPDEST PUSH2 0x321 DUP2 DUP6 PUSH2 0x4DF JUMP JUMPDEST SWAP4 POP PUSH2 0x331 DUP2 DUP6 PUSH1 0x20 DUP7 ADD PUSH2 0x550 JUMP JUMPDEST PUSH2 0x33A DUP2 PUSH2 0x5E0 JUMP JUMPDEST DUP5 ADD SWAP2 POP POP SWAP3 SWAP2 POP POP JUMP JUMPDEST PUSH1 0x0 PUSH2 0x350 DUP3 PUSH2 0x4D4 JUMP JUMPDEST PUSH2 0x35A DUP2 DUP6 PUSH2 0x4F0 JUMP JUMPDEST SWAP4 POP PUSH2 0x36A DUP2 DUP6 PUSH1 0x20 DUP7 ADD PUSH2 0x550 JUMP JUMPDEST DUP1 DUP5 ADD SWAP2 POP POP SWAP3 SWAP2 POP POP JUMP JUMPDEST PUSH2 0x37F DUP2 PUSH2 0x537 JUMP JUMPDEST DUP3 MSTORE POP POP JUMP JUMPDEST PUSH2 0x396 PUSH2 0x391 DUP3 PUSH2 0x537 JUMP JUMPDEST PUSH2 0x5A7 JUMP JUMPDEST DUP3 MSTORE POP POP JUMP JUMPDEST PUSH1 0x0 PUSH2 0x3A8 DUP3 DUP7 PUSH2 0x345 JUMP JUMPDEST SWAP2 POP PUSH2 0x3B4 DUP3 DUP6 PUSH2 0x385 JUMP JUMPDEST PUSH1 0x20 DUP3 ADD SWAP2 POP PUSH2 0x3C4 DUP3 DUP5 PUSH2 0x2E6 JUMP JUMPDEST PUSH1 0x14 DUP3 ADD SWAP2 POP DUP2 SWAP1 POP SWAP5 SWAP4 POP POP POP POP JUMP JUMPDEST PUSH1 0x0 PUSH1 0x20 DUP3 ADD SWAP1 POP DUP2 DUP2 SUB PUSH1 0x0 DUP4 ADD MSTORE PUSH2 0x3EF DUP2 DUP5 PUSH2 0x30C JUMP JUMPDEST SWAP1 POP SWAP3 SWAP2 POP POP JUMP JUMPDEST PUSH1 0x0 PUSH1 0x40 DUP3 ADD SWAP1 POP DUP2 DUP2 SUB PUSH1 0x0 DUP4 ADD MSTORE PUSH2 0x411 DUP2 DUP6 PUSH2 0x30C JUMP JUMPDEST SWAP1 POP PUSH2 0x420 PUSH1 0x20 DUP4 ADD DUP5 PUSH2 0x376 JUMP JUMPDEST SWAP4 SWAP3 POP POP POP JUMP JUMPDEST PUSH1 0x0 PUSH1 0x80 DUP3 ADD SWAP1 POP DUP2 DUP2 SUB PUSH1 0x0 DUP4 ADD MSTORE PUSH2 0x441 DUP2 DUP8 PUSH2 0x30C JUMP JUMPDEST SWAP1 POP PUSH2 0x450 PUSH1 0x20 DUP4 ADD DUP7 PUSH2 0x376 JUMP JUMPDEST PUSH2 0x45D PUSH1 0x40 DUP4 ADD DUP6 PUSH2 0x2D7 JUMP JUMPDEST PUSH2 0x46A PUSH1 0x60 DUP4 ADD DUP5 PUSH2 0x2FD JUMP JUMPDEST SWAP6 SWAP5 POP POP POP POP POP JUMP JUMPDEST PUSH1 0x0 PUSH1 0x40 MLOAD SWAP1 POP DUP2 DUP2 ADD DUP2 DUP2 LT PUSH8 0xFFFFFFFFFFFFFFFF DUP3 GT OR ISZERO PUSH2 0x49A JUMPI PUSH2 0x499 PUSH2 0x5B1 JUMP JUMPDEST JUMPDEST DUP1 PUSH1 0x40 MSTORE POP SWAP2 SWAP1 POP JUMP JUMPDEST PUSH1 0x0 PUSH8 0xFFFFFFFFFFFFFFFF DUP3 GT ISZERO PUSH2 0x4BF JUMPI PUSH2 0x4BE PUSH2 0x5B1 JUMP JUMPDEST JUMPDEST PUSH1 0x1F NOT PUSH1 0x1F DUP4 ADD AND SWAP1 POP PUSH1 0x20 DUP2 ADD SWAP1 POP SWAP2 SWAP1 POP JUMP JUMPDEST PUSH1 0x0 DUP2 MLOAD SWAP1 POP SWAP2 SWAP1 POP JUMP JUMPDEST PUSH1 0x0 DUP3 DUP3 MSTORE PUSH1 0x20 DUP3 ADD SWAP1 POP SWAP3 SWAP2 POP POP JUMP JUMPDEST PUSH1 0x0 DUP2 SWAP1 POP SWAP3 SWAP2 POP POP JUMP JUMPDEST PUSH1 0x0 PUSH2 0x506 DUP3 PUSH2 0x517 JUMP JUMPDEST SWAP1 POP SWAP2 SWAP1 POP JUMP JUMPDEST PUSH1 0x0 DUP2 SWAP1 POP SWAP2 SWAP1 POP JUMP JUMPDEST PUSH1 0x0 PUSH20 0xFFFFFFFFFFFFFFFFFFFFFFFFFFFFFFFFFFFFFFFF DUP3 AND SWAP1 POP SWAP2 SWAP1 POP JUMP JUMPDEST PUSH1 0x0 DUP2 SWAP1 POP SWAP2 SWAP1 POP JUMP JUMPDEST DUP3 DUP2 DUP4 CALLDATACOPY PUSH1 0x0 DUP4 DUP4 ADD MSTORE POP POP POP JUMP JUMPDEST PUSH1 0x0 JUMPDEST DUP4 DUP2 LT ISZERO PUSH2 0x56E JUMPI DUP1 DUP3 ADD MLOAD DUP2 DUP5 ADD MSTORE PUSH1 0x20 DUP2 ADD SWAP1 POP PUSH2 0x553 JUMP JUMPDEST DUP4 DUP2 GT ISZERO PUSH2 0x57D JUMPI PUSH1 0x0 DUP5 DUP5 ADD MSTORE JUMPDEST POP POP POP POP JUMP JUMPDEST PUSH1 0x0 PUSH2 0x58E DUP3 PUSH2 0x595 JUMP JUMPDEST SWAP1 POP SWAP2 SWAP1 POP JUMP JUMPDEST PUSH1 0x0 PUSH2 0x5A0 DUP3 PUSH2 0x5F1 JUMP JUMPDEST SWAP1 POP SWAP2 SWAP1 POP JUMP JUMPDEST PUSH1 0x0 DUP2 SWAP1 POP SWAP2 SWAP1 POP JUMP JUMPDEST PUSH32 0x4E487B7100000000000000000000000000000000000000000000000000000000 PUSH1 0x0 MSTORE PUSH1 0x41 PUSH1 0x4 MSTORE PUSH1 0x24 PUSH1 0x0 REVERT JUMPDEST PUSH1 0x0 PUSH1 0x1F NOT PUSH1 0x1F DUP4 ADD AND SWAP1 POP SWAP2 SWAP1 POP JUMP JUMPDEST PUSH1 0x0 DUP2 PUSH1 0x60 SHL SWAP1 POP SWAP2 SWAP1 POP JUMP JUMPDEST PUSH2 0x607 DUP2 PUSH2 0x537 JUMP JUMPDEST DUP2 EQ PUSH2 0x612 JUMPI PUSH1 0x0 DUP1 REVERT JUMPDEST POP JUMP INVALID LOG2 PUSH5 0x6970667358 0x22 SLT KECCAK256 PUSH1 0xAE PUSH19 0xCDE43032BA960C5F25F06A06D491580FC1BC46 LOG3 SMOD 0xD6 DELEGATECALL SMOD 0x23 JUMP PUSH31 0xB6A064736F6C63430008000033000000000000000000000000000000000000 "
		},
		"gasEstimates": {
			"creation": {
				"codeDepositCost": "322200",
				"executionCost": "362",
				"totalCost": "322562"
			},
			"external": {
				"EmitirEvento1(string)": "infinite",
				"EmitirEvento2(string,uint256)": "infinite",
				"EmitirEvento3(string,uint256)": "infinite",
				"EmitirEvento4()": "921"
			}
		},
		"methodIdentifiers": {
			"EmitirEvento1(string)": "abefda81",
			"EmitirEvento2(string,uint256)": "c355a3e5",
			"EmitirEvento3(string,uint256)": "14d07a25",
			"EmitirEvento4()": "6529ade3"
		}
	},
	"abi": [
		{
			"anonymous": false,
			"inputs": [],
			"name": "abortarmision",
			"type": "event"
		},
		{
			"anonymous": false,
			"inputs": [
				{
					"indexed": false,
					"internalType": "string",
					"name": "_nombrePersona",
					"type": "string"
				}
			],
			"name": "nombre1",
			"type": "event"
		},
		{
			"anonymous": false,
			"inputs": [
				{
					"indexed": false,
					"internalType": "string",
					"name": "_nombrePersona",
					"type": "string"
				},
				{
					"indexed": false,
					"internalType": "uint256",
					"name": "edadPersona",
					"type": "uint256"
				}
			],
			"name": "nombre2",
			"type": "event"
		},
		{
			"anonymous": false,
			"inputs": [
				{
					"indexed": false,
					"internalType": "string",
					"name": "",
					"type": "string"
				},
				{
					"indexed": false,
					"internalType": "uint256",
					"name": "",
					"type": "uint256"
				},
				{
					"indexed": false,
					"internalType": "address",
					"name": "",
					"type": "address"
				},
				{
					"indexed": false,
					"internalType": "bytes32",
					"name": "",
					"type": "bytes32"
				}
			],
			"name": "nombre3",
			"type": "event"
		},
		{
			"inputs": [
				{
					"internalType": "string",
					"name": "_nombrePersona",
					"type": "string"
				}
			],
			"name": "EmitirEvento1",
			"outputs": [],
			"stateMutability": "nonpayable",
			"type": "function"
		},
		{
			"inputs": [
				{
					"internalType": "string",
					"name": "_nombrePersona",
					"type": "string"
				},
				{
					"internalType": "uint256",
					"name": "_edad",
					"type": "uint256"
				}
			],
			"name": "EmitirEvento2",
			"outputs": [],
			"stateMutability": "nonpayable",
			"type": "function"
		},
		{
			"inputs": [
				{
					"internalType": "string",
					"name": "_nombrePersona",
					"type": "string"
				},
				{
					"internalType": "uint256",
					"name": "_edad",
					"type": "uint256"
				}
			],
			"name": "EmitirEvento3",
			"outputs": [],
			"stateMutability": "nonpayable",
			"type": "function"
		},
		{
			"inputs": [],
			"name": "EmitirEvento4",
			"outputs": [],
			"stateMutability": "nonpayable",
			"type": "function"
		}
	]
}